{
  "contractName": "DigitalIdentity",
  "abi": [
    {
      "anonymous": false,
      "inputs": [
        {
          "indexed": false,
          "internalType": "string",
          "name": "userId",
          "type": "string"
        },
        {
          "indexed": false,
          "internalType": "string",
          "name": "data",
          "type": "string"
        }
      ],
      "name": "IdentityCreated",
      "type": "event"
    },
    {
      "anonymous": false,
      "inputs": [
        {
          "indexed": false,
          "internalType": "string",
          "name": "userId",
          "type": "string"
        },
        {
          "indexed": false,
          "internalType": "string",
          "name": "newData",
          "type": "string"
        }
      ],
      "name": "IdentityUpdated",
      "type": "event"
    },
    {
      "inputs": [
        {
          "internalType": "string",
          "name": "",
          "type": "string"
        }
      ],
      "name": "identities",
      "outputs": [
        {
          "internalType": "string",
          "name": "userId",
          "type": "string"
        },
        {
          "internalType": "string",
          "name": "data",
          "type": "string"
        }
      ],
      "stateMutability": "view",
      "type": "function"
    },
    {
      "inputs": [
        {
          "internalType": "string",
          "name": "userId",
          "type": "string"
        },
        {
          "internalType": "string",
          "name": "data",
          "type": "string"
        }
      ],
      "name": "createIdentity",
      "outputs": [],
      "stateMutability": "nonpayable",
      "type": "function"
    },
    {
      "inputs": [
        {
          "internalType": "string",
          "name": "userId",
          "type": "string"
        },
        {
          "internalType": "string",
          "name": "newData",
          "type": "string"
        }
      ],
      "name": "updateIdentity",
      "outputs": [],
      "stateMutability": "nonpayable",
      "type": "function"
    },
    {
      "inputs": [
        {
          "internalType": "string",
          "name": "userId",
          "type": "string"
        }
      ],
      "name": "getIdentity",
      "outputs": [
        {
          "internalType": "string",
          "name": "",
          "type": "string"
        }
      ],
      "stateMutability": "view",
      "type": "function"
    }
  ],
  "bytecode": "0x608060405234801561000f575f80fd5b50610bbc8061001d5f395ff3fe608060405234801561000f575f80fd5b506004361061004a575f3560e01c806301e21afb1461004e5780630a29ae6f1461007f578063a309e6e1146100af578063e16efc6d146100cb575b5f80fd5b61006860048036038101906100639190610608565b6100e7565b6040516100769291906106c9565b60405180910390f35b61009960048036038101906100949190610608565b61022a565b6040516100a691906106fe565b60405180910390f35b6100c960048036038101906100c4919061071e565b6102da565b005b6100e560048036038101906100e0919061071e565b6103e3565b005b5f818051602081018201805184825260208301602085012081835280955050505050505f91509050805f01805461011d906107c1565b80601f0160208091040260200160405190810160405280929190818152602001828054610149906107c1565b80156101945780601f1061016b57610100808354040283529160200191610194565b820191905f5260205f20905b81548152906001019060200180831161017757829003601f168201915b5050505050908060010180546101a9906107c1565b80601f01602080910402602001604051908101604052809291908181526020018280546101d5906107c1565b80156102205780601f106101f757610100808354040283529160200191610220565b820191905f5260205f20905b81548152906001019060200180831161020357829003601f168201915b5050505050905082565b60605f8260405161023b919061082b565b90815260200160405180910390206001018054610257906107c1565b80601f0160208091040260200160405190810160405280929190818152602001828054610283906107c1565b80156102ce5780601f106102a5576101008083540402835291602001916102ce565b820191905f5260205f20905b8154815290600101906020018083116102b157829003601f168201915b50505050509050919050565b5f80836040516102ea919061082b565b90815260200160405180910390205f018054610305906107c1565b905014610347576040517f08c379a000000000000000000000000000000000000000000000000000000000815260040161033e9061088b565b60405180910390fd5b6040518060400160405280838152602001828152505f8360405161036b919061082b565b90815260200160405180910390205f820151815f01908161038c9190610a4f565b5060208201518160010190816103a29190610a4f565b509050507fc4d1b0ce53cd7e7b09850635e757ee8629340b38ff5fbfdc0e16c46f7fbe691a82826040516103d79291906106c9565b60405180910390a15050565b5f80836040516103f3919061082b565b90815260200160405180910390205f01805461040e906107c1565b905003610450576040517f08c379a000000000000000000000000000000000000000000000000000000000815260040161044790610b68565b60405180910390fd5b805f83604051610460919061082b565b9081526020016040518091039020600101908161047d9190610a4f565b507f96690080b38106e4ff6417abff8594f968e5fe0190e796468f9165c5ce9797e182826040516104af9291906106c9565b60405180910390a15050565b5f604051905090565b5f80fd5b5f80fd5b5f80fd5b5f80fd5b5f601f19601f8301169050919050565b7f4e487b71000000000000000000000000000000000000000000000000000000005f52604160045260245ffd5b61051a826104d4565b810181811067ffffffffffffffff82111715610539576105386104e4565b5b80604052505050565b5f61054b6104bb565b90506105578282610511565b919050565b5f67ffffffffffffffff821115610576576105756104e4565b5b61057f826104d4565b9050602081019050919050565b828183375f83830152505050565b5f6105ac6105a78461055c565b610542565b9050828152602081018484840111156105c8576105c76104d0565b5b6105d384828561058c565b509392505050565b5f82601f8301126105ef576105ee6104cc565b5b81356105ff84826020860161059a565b91505092915050565b5f6020828403121561061d5761061c6104c4565b5b5f82013567ffffffffffffffff81111561063a576106396104c8565b5b610646848285016105db565b91505092915050565b5f81519050919050565b5f82825260208201905092915050565b5f5b8381101561068657808201518184015260208101905061066b565b5f8484015250505050565b5f61069b8261064f565b6106a58185610659565b93506106b5818560208601610669565b6106be816104d4565b840191505092915050565b5f6040820190508181035f8301526106e18185610691565b905081810360208301526106f58184610691565b90509392505050565b5f6020820190508181035f8301526107168184610691565b905092915050565b5f8060408385031215610734576107336104c4565b5b5f83013567ffffffffffffffff811115610751576107506104c8565b5b61075d858286016105db565b925050602083013567ffffffffffffffff81111561077e5761077d6104c8565b5b61078a858286016105db565b9150509250929050565b7f4e487b71000000000000000000000000000000000000000000000000000000005f52602260045260245ffd5b5f60028204905060018216806107d857607f821691505b6020821081036107eb576107ea610794565b5b50919050565b5f81905092915050565b5f6108058261064f565b61080f81856107f1565b935061081f818560208601610669565b80840191505092915050565b5f61083682846107fb565b915081905092915050565b7f4964656e7469747920616c7265616479206578697374732e00000000000000005f82015250565b5f610875601883610659565b915061088082610841565b602082019050919050565b5f6020820190508181035f8301526108a281610869565b9050919050565b5f819050815f5260205f209050919050565b5f6020601f8301049050919050565b5f82821b905092915050565b5f600883026109057fffffffffffffffffffffffffffffffffffffffffffffffffffffffffffffffff826108ca565b61090f86836108ca565b95508019841693508086168417925050509392505050565b5f819050919050565b5f819050919050565b5f61095361094e61094984610927565b610930565b610927565b9050919050565b5f819050919050565b61096c83610939565b6109806109788261095a565b8484546108d6565b825550505050565b5f90565b610994610988565b61099f818484610963565b505050565b5b818110156109c2576109b75f8261098c565b6001810190506109a5565b5050565b601f821115610a07576109d8816108a9565b6109e1846108bb565b810160208510156109f0578190505b610a046109fc856108bb565b8301826109a4565b50505b505050565b5f82821c905092915050565b5f610a275f1984600802610a0c565b1980831691505092915050565b5f610a3f8383610a18565b9150826002028217905092915050565b610a588261064f565b67ffffffffffffffff811115610a7157610a706104e4565b5b610a7b82546107c1565b610a868282856109c6565b5f60209050601f831160018114610ab7575f8415610aa5578287015190505b610aaf8582610a34565b865550610b16565b601f198416610ac5866108a9565b5f5b82811015610aec57848901518255600182019150602085019450602081019050610ac7565b86831015610b095784890151610b05601f891682610a18565b8355505b6001600288020188555050505b505050505050565b7f4964656e74697479206e6f7420666f756e642e000000000000000000000000005f82015250565b5f610b52601383610659565b9150610b5d82610b1e565b602082019050919050565b5f6020820190508181035f830152610b7f81610b46565b905091905056fea26469706673582212206e24db51dc70ba42db3472d456eae250f045ff812443403c0a9e07006673817664736f6c63430008150033",
  "immutableReferences": {},
  "source": "// SPDX-License-Identifier: MIT\r\npragma solidity ^0.8.21;\r\n\r\ncontract DigitalIdentity {\r\n    struct Identity {\r\n        string userId;\r\n        string data;\r\n    }\r\n\r\n    mapping(string => Identity) public identities;\r\n\r\n    event IdentityCreated(string userId, string data);\r\n    event IdentityUpdated(string userId, string newData);\r\n\r\n    function createIdentity(string memory userId, string memory data) public {\r\n        require(bytes(identities[userId].userId).length == 0, \"Identity already exists.\");\r\n        identities[userId] = Identity(userId, data);\r\n        emit IdentityCreated(userId, data);\r\n    }\r\n\r\n    function updateIdentity(string memory userId, string memory newData) public {\r\n        require(bytes(identities[userId].userId).length != 0, \"Identity not found.\");\r\n        identities[userId].data = newData;\r\n        emit IdentityUpdated(userId, newData);\r\n    }\r\n\r\n    function getIdentity(string memory userId) public view returns (string memory) {\r\n        return identities[userId].data;\r\n    }\r\n}\r\n",
  "sourcePath": "C:\\my-ethereum-project\\contracts\\digital_identity_contract.sol",
  "compiler": {
    "name": "solc",
    "version": "0.8.21+commit.d9974bed.Emscripten.clang"
  },
  "schemaVersion": "3.4.16",
  "updatedAt": "2024-12-24T13:28:21.830Z",
  "devdoc": {
    "kind": "dev",
    "methods": {},
    "version": 1
  },
  "userdoc": {
    "kind": "user",
    "methods": {},
    "version": 1
  }
}