{
  "contractName": "HealthcareRecords",
  "abi": [
    {
      "anonymous": false,
      "inputs": [
        {
          "indexed": false,
          "internalType": "string",
          "name": "patientId",
          "type": "string"
        },
        {
          "indexed": false,
          "internalType": "string",
          "name": "data",
          "type": "string"
        }
      ],
      "name": "RecordAdded",
      "type": "event"
    },
    {
      "anonymous": false,
      "inputs": [
        {
          "indexed": false,
          "internalType": "string",
          "name": "patientId",
          "type": "string"
        },
        {
          "indexed": false,
          "internalType": "string",
          "name": "newData",
          "type": "string"
        }
      ],
      "name": "RecordUpdated",
      "type": "event"
    },
    {
      "inputs": [
        {
          "internalType": "string",
          "name": "",
          "type": "string"
        }
      ],
      "name": "records",
      "outputs": [
        {
          "internalType": "string",
          "name": "patientId",
          "type": "string"
        },
        {
          "internalType": "string",
          "name": "data",
          "type": "string"
        }
      ],
      "stateMutability": "view",
      "type": "function"
    },
    {
      "inputs": [
        {
          "internalType": "string",
          "name": "patientId",
          "type": "string"
        },
        {
          "internalType": "string",
          "name": "data",
          "type": "string"
        }
      ],
      "name": "addRecord",
      "outputs": [],
      "stateMutability": "nonpayable",
      "type": "function"
    },
    {
      "inputs": [
        {
          "internalType": "string",
          "name": "patientId",
          "type": "string"
        },
        {
          "internalType": "string",
          "name": "newData",
          "type": "string"
        }
      ],
      "name": "updateRecord",
      "outputs": [],
      "stateMutability": "nonpayable",
      "type": "function"
    },
    {
      "inputs": [
        {
          "internalType": "string",
          "name": "patientId",
          "type": "string"
        }
      ],
      "name": "getRecord",
      "outputs": [
        {
          "internalType": "string",
          "name": "",
          "type": "string"
        }
      ],
      "stateMutability": "view",
      "type": "function"
    }
  ],
  "bytecode": "0x608060405234801561000f575f80fd5b50610bbc8061001d5f395ff3fe608060405234801561000f575f80fd5b506004361061004a575f3560e01c806311dd88451461004e578063541e771d1461007e57806367822aae146100af578063c9596248146100cb575b5f80fd5b61006860048036038101906100639190610608565b6100e7565b60405161007591906106c9565b60405180910390f35b61009860048036038101906100939190610608565b610197565b6040516100a69291906106e9565b60405180910390f35b6100c960048036038101906100c4919061071e565b6102da565b005b6100e560048036038101906100e0919061071e565b6103b2565b005b60605f826040516100f891906107ce565b9081526020016040518091039020600101805461011490610811565b80601f016020809104026020016040519081016040528092919081815260200182805461014090610811565b801561018b5780601f106101625761010080835404028352916020019161018b565b820191905f5260205f20905b81548152906001019060200180831161016e57829003601f168201915b50505050509050919050565b5f818051602081018201805184825260208301602085012081835280955050505050505f91509050805f0180546101cd90610811565b80601f01602080910402602001604051908101604052809291908181526020018280546101f990610811565b80156102445780601f1061021b57610100808354040283529160200191610244565b820191905f5260205f20905b81548152906001019060200180831161022757829003601f168201915b50505050509080600101805461025990610811565b80601f016020809104026020016040519081016040528092919081815260200182805461028590610811565b80156102d05780601f106102a7576101008083540402835291602001916102d0565b820191905f5260205f20905b8154815290600101906020018083116102b357829003601f168201915b5050505050905082565b5f80836040516102ea91906107ce565b90815260200160405180910390205f01805461030590610811565b905003610347576040517f08c379a000000000000000000000000000000000000000000000000000000000815260040161033e9061088b565b60405180910390fd5b805f8360405161035791906107ce565b908152602001604051809103902060010190816103749190610a4f565b507fa32b92311d4910d53fdddcf93a238419a815906305d579caf8d933aacd39f64082826040516103a69291906106e9565b60405180910390a15050565b5f80836040516103c291906107ce565b90815260200160405180910390205f0180546103dd90610811565b90501461041f576040517f08c379a000000000000000000000000000000000000000000000000000000000815260040161041690610b68565b60405180910390fd5b6040518060400160405280838152602001828152505f8360405161044391906107ce565b90815260200160405180910390205f820151815f0190816104649190610a4f565b50602082015181600101908161047a9190610a4f565b509050507fbd0ee5ea7025d9c57d179b2ab864af8addb63b746cb7544d7e152d2f5943212f82826040516104af9291906106e9565b60405180910390a15050565b5f604051905090565b5f80fd5b5f80fd5b5f80fd5b5f80fd5b5f601f19601f8301169050919050565b7f4e487b71000000000000000000000000000000000000000000000000000000005f52604160045260245ffd5b61051a826104d4565b810181811067ffffffffffffffff82111715610539576105386104e4565b5b80604052505050565b5f61054b6104bb565b90506105578282610511565b919050565b5f67ffffffffffffffff821115610576576105756104e4565b5b61057f826104d4565b9050602081019050919050565b828183375f83830152505050565b5f6105ac6105a78461055c565b610542565b9050828152602081018484840111156105c8576105c76104d0565b5b6105d384828561058c565b509392505050565b5f82601f8301126105ef576105ee6104cc565b5b81356105ff84826020860161059a565b91505092915050565b5f6020828403121561061d5761061c6104c4565b5b5f82013567ffffffffffffffff81111561063a576106396104c8565b5b610646848285016105db565b91505092915050565b5f81519050919050565b5f82825260208201905092915050565b5f5b8381101561068657808201518184015260208101905061066b565b5f8484015250505050565b5f61069b8261064f565b6106a58185610659565b93506106b5818560208601610669565b6106be816104d4565b840191505092915050565b5f6020820190508181035f8301526106e18184610691565b905092915050565b5f6040820190508181035f8301526107018185610691565b905081810360208301526107158184610691565b90509392505050565b5f8060408385031215610734576107336104c4565b5b5f83013567ffffffffffffffff811115610751576107506104c8565b5b61075d858286016105db565b925050602083013567ffffffffffffffff81111561077e5761077d6104c8565b5b61078a858286016105db565b9150509250929050565b5f81905092915050565b5f6107a88261064f565b6107b28185610794565b93506107c2818560208601610669565b80840191505092915050565b5f6107d9828461079e565b915081905092915050565b7f4e487b71000000000000000000000000000000000000000000000000000000005f52602260045260245ffd5b5f600282049050600182168061082857607f821691505b60208210810361083b5761083a6107e4565b5b50919050565b7f5265636f7264206e6f7420666f756e642e0000000000000000000000000000005f82015250565b5f610875601183610659565b915061088082610841565b602082019050919050565b5f6020820190508181035f8301526108a281610869565b9050919050565b5f819050815f5260205f209050919050565b5f6020601f8301049050919050565b5f82821b905092915050565b5f600883026109057fffffffffffffffffffffffffffffffffffffffffffffffffffffffffffffffff826108ca565b61090f86836108ca565b95508019841693508086168417925050509392505050565b5f819050919050565b5f819050919050565b5f61095361094e61094984610927565b610930565b610927565b9050919050565b5f819050919050565b61096c83610939565b6109806109788261095a565b8484546108d6565b825550505050565b5f90565b610994610988565b61099f818484610963565b505050565b5b818110156109c2576109b75f8261098c565b6001810190506109a5565b5050565b601f821115610a07576109d8816108a9565b6109e1846108bb565b810160208510156109f0578190505b610a046109fc856108bb565b8301826109a4565b50505b505050565b5f82821c905092915050565b5f610a275f1984600802610a0c565b1980831691505092915050565b5f610a3f8383610a18565b9150826002028217905092915050565b610a588261064f565b67ffffffffffffffff811115610a7157610a706104e4565b5b610a7b8254610811565b610a868282856109c6565b5f60209050601f831160018114610ab7575f8415610aa5578287015190505b610aaf8582610a34565b865550610b16565b601f198416610ac5866108a9565b5f5b82811015610aec57848901518255600182019150602085019450602081019050610ac7565b86831015610b095784890151610b05601f891682610a18565b8355505b6001600288020188555050505b505050505050565b7f5265636f726420616c7265616479206578697374732e000000000000000000005f82015250565b5f610b52601683610659565b9150610b5d82610b1e565b602082019050919050565b5f6020820190508181035f830152610b7f81610b46565b905091905056fea2646970667358221220ad8102cc1329578fc5875b315b3d28b6c248da5a52cabd5c326067dbf0d9d05d64736f6c63430008150033",
  "immutableReferences": {},
  "source": "// SPDX-License-Identifier: MIT\r\npragma solidity ^0.8.21;\r\n\r\ncontract HealthcareRecords {\r\n    struct Record {\r\n        string patientId;\r\n        string data;\r\n    }\r\n\r\n    mapping(string => Record) public records;\r\n\r\n    event RecordAdded(string patientId, string data);\r\n    event RecordUpdated(string patientId, string newData);\r\n\r\n    function addRecord(string memory patientId, string memory data) public {\r\n        require(bytes(records[patientId].patientId).length == 0, \"Record already exists.\");\r\n        records[patientId] = Record(patientId, data);\r\n        emit RecordAdded(patientId, data);\r\n    }\r\n\r\n    function updateRecord(string memory patientId, string memory newData) public {\r\n        require(bytes(records[patientId].patientId).length != 0, \"Record not found.\");\r\n        records[patientId].data = newData;\r\n        emit RecordUpdated(patientId, newData);\r\n    }\r\n\r\n    function getRecord(string memory patientId) public view returns (string memory) {\r\n        return records[patientId].data;\r\n    }\r\n}\r\n",
  "sourcePath": "C:\\my-ethereum-project\\contracts\\healthcare_records_contract.sol",
  "compiler": {
    "name": "solc",
    "version": "0.8.21+commit.d9974bed.Emscripten.clang"
  },
  "schemaVersion": "3.4.16",
  "updatedAt": "2024-12-24T13:28:21.838Z",
  "devdoc": {
    "kind": "dev",
    "methods": {},
    "version": 1
  },
  "userdoc": {
    "kind": "user",
    "methods": {},
    "version": 1
  }
}