{
  "contractName": "LandRegistry",
  "abi": [
    {
      "anonymous": false,
      "inputs": [
        {
          "indexed": false,
          "internalType": "string",
          "name": "propertyId",
          "type": "string"
        },
        {
          "indexed": false,
          "internalType": "address",
          "name": "owner",
          "type": "address"
        }
      ],
      "name": "PropertyRegistered",
      "type": "event"
    },
    {
      "anonymous": false,
      "inputs": [
        {
          "indexed": false,
          "internalType": "string",
          "name": "propertyId",
          "type": "string"
        },
        {
          "indexed": false,
          "internalType": "address",
          "name": "newOwner",
          "type": "address"
        }
      ],
      "name": "PropertyTransferred",
      "type": "event"
    },
    {
      "inputs": [
        {
          "internalType": "string",
          "name": "",
          "type": "string"
        }
      ],
      "name": "properties",
      "outputs": [
        {
          "internalType": "address",
          "name": "owner",
          "type": "address"
        },
        {
          "internalType": "string",
          "name": "propertyId",
          "type": "string"
        }
      ],
      "stateMutability": "view",
      "type": "function"
    },
    {
      "inputs": [
        {
          "internalType": "string",
          "name": "propertyId",
          "type": "string"
        }
      ],
      "name": "registerProperty",
      "outputs": [],
      "stateMutability": "nonpayable",
      "type": "function"
    },
    {
      "inputs": [
        {
          "internalType": "string",
          "name": "propertyId",
          "type": "string"
        },
        {
          "internalType": "address",
          "name": "newOwner",
          "type": "address"
        }
      ],
      "name": "transferProperty",
      "outputs": [],
      "stateMutability": "nonpayable",
      "type": "function"
    },
    {
      "inputs": [
        {
          "internalType": "string",
          "name": "propertyId",
          "type": "string"
        }
      ],
      "name": "getPropertyOwner",
      "outputs": [
        {
          "internalType": "address",
          "name": "",
          "type": "address"
        }
      ],
      "stateMutability": "view",
      "type": "function"
    }
  ],
  "bytecode": "0x608060405234801561000f575f80fd5b50610c718061001d5f395ff3fe608060405234801561000f575f80fd5b506004361061004a575f3560e01c80639be8f2a61461004e578063cbc6fb251461007f578063d2675d59146100af578063f64f7fb2146100cb575b5f80fd5b6100686004803603810190610063919061062a565b6100e7565b60405161007692919061072a565b60405180910390f35b6100996004803603810190610094919061062a565b6101c3565b6040516100a69190610758565b60405180910390f35b6100c960048036038101906100c4919061062a565b61020a565b005b6100e560048036038101906100e0919061079b565b610397565b005b5f818051602081018201805184825260208301602085012081835280955050505050505f91509050805f015f9054906101000a900473ffffffffffffffffffffffffffffffffffffffff169080600101805461014290610822565b80601f016020809104026020016040519081016040528092919081815260200182805461016e90610822565b80156101b95780601f10610190576101008083540402835291602001916101b9565b820191905f5260205f20905b81548152906001019060200180831161019c57829003601f168201915b5050505050905082565b5f80826040516101d3919061088c565b90815260200160405180910390205f015f9054906101000a900473ffffffffffffffffffffffffffffffffffffffff169050919050565b5f73ffffffffffffffffffffffffffffffffffffffff165f82604051610230919061088c565b90815260200160405180910390205f015f9054906101000a900473ffffffffffffffffffffffffffffffffffffffff1673ffffffffffffffffffffffffffffffffffffffff16146102b6576040517f08c379a00000000000000000000000000000000000000000000000000000000081526004016102ad906108ec565b60405180910390fd5b60405180604001604052803373ffffffffffffffffffffffffffffffffffffffff168152602001828152505f826040516102f0919061088c565b90815260200160405180910390205f820151815f015f6101000a81548173ffffffffffffffffffffffffffffffffffffffff021916908373ffffffffffffffffffffffffffffffffffffffff16021790555060208201518160010190816103579190610ab0565b509050507fba4092460bba778b9ffed9867d5694153585e1eaff95260f3b4b35cf7eb9c48e813360405161038c929190610b7f565b60405180910390a150565b3373ffffffffffffffffffffffffffffffffffffffff165f836040516103bd919061088c565b90815260200160405180910390205f015f9054906101000a900473ffffffffffffffffffffffffffffffffffffffff1673ffffffffffffffffffffffffffffffffffffffff1614610443576040517f08c379a000000000000000000000000000000000000000000000000000000000815260040161043a90610c1d565b60405180910390fd5b805f83604051610453919061088c565b90815260200160405180910390205f015f6101000a81548173ffffffffffffffffffffffffffffffffffffffff021916908373ffffffffffffffffffffffffffffffffffffffff1602179055507f851bba1fb656fbcf3c006c27bb0150266c6e9c35c0668ab29ba1c2f3b53cd04882826040516104d1929190610b7f565b60405180910390a15050565b5f604051905090565b5f80fd5b5f80fd5b5f80fd5b5f80fd5b5f601f19601f8301169050919050565b7f4e487b71000000000000000000000000000000000000000000000000000000005f52604160045260245ffd5b61053c826104f6565b810181811067ffffffffffffffff8211171561055b5761055a610506565b5b80604052505050565b5f61056d6104dd565b90506105798282610533565b919050565b5f67ffffffffffffffff82111561059857610597610506565b5b6105a1826104f6565b9050602081019050919050565b828183375f83830152505050565b5f6105ce6105c98461057e565b610564565b9050828152602081018484840111156105ea576105e96104f2565b5b6105f58482856105ae565b509392505050565b5f82601f830112610611576106106104ee565b5b81356106218482602086016105bc565b91505092915050565b5f6020828403121561063f5761063e6104e6565b5b5f82013567ffffffffffffffff81111561065c5761065b6104ea565b5b610668848285016105fd565b91505092915050565b5f73ffffffffffffffffffffffffffffffffffffffff82169050919050565b5f61069a82610671565b9050919050565b6106aa81610690565b82525050565b5f81519050919050565b5f82825260208201905092915050565b5f5b838110156106e75780820151818401526020810190506106cc565b5f8484015250505050565b5f6106fc826106b0565b61070681856106ba565b93506107168185602086016106ca565b61071f816104f6565b840191505092915050565b5f60408201905061073d5f8301856106a1565b818103602083015261074f81846106f2565b90509392505050565b5f60208201905061076b5f8301846106a1565b92915050565b61077a81610690565b8114610784575f80fd5b50565b5f8135905061079581610771565b92915050565b5f80604083850312156107b1576107b06104e6565b5b5f83013567ffffffffffffffff8111156107ce576107cd6104ea565b5b6107da858286016105fd565b92505060206107eb85828601610787565b9150509250929050565b7f4e487b71000000000000000000000000000000000000000000000000000000005f52602260045260245ffd5b5f600282049050600182168061083957607f821691505b60208210810361084c5761084b6107f5565b5b50919050565b5f81905092915050565b5f610866826106b0565b6108708185610852565b93506108808185602086016106ca565b80840191505092915050565b5f610897828461085c565b915081905092915050565b7f50726f706572747920616c726561647920726567697374657265642e000000005f82015250565b5f6108d6601c836106ba565b91506108e1826108a2565b602082019050919050565b5f6020820190508181035f830152610903816108ca565b9050919050565b5f819050815f5260205f209050919050565b5f6020601f8301049050919050565b5f82821b905092915050565b5f600883026109667fffffffffffffffffffffffffffffffffffffffffffffffffffffffffffffffff8261092b565b610970868361092b565b95508019841693508086168417925050509392505050565b5f819050919050565b5f819050919050565b5f6109b46109af6109aa84610988565b610991565b610988565b9050919050565b5f819050919050565b6109cd8361099a565b6109e16109d9826109bb565b848454610937565b825550505050565b5f90565b6109f56109e9565b610a008184846109c4565b505050565b5b81811015610a2357610a185f826109ed565b600181019050610a06565b5050565b601f821115610a6857610a398161090a565b610a428461091c565b81016020851015610a51578190505b610a65610a5d8561091c565b830182610a05565b50505b505050565b5f82821c905092915050565b5f610a885f1984600802610a6d565b1980831691505092915050565b5f610aa08383610a79565b9150826002028217905092915050565b610ab9826106b0565b67ffffffffffffffff811115610ad257610ad1610506565b5b610adc8254610822565b610ae7828285610a27565b5f60209050601f831160018114610b18575f8415610b06578287015190505b610b108582610a95565b865550610b77565b601f198416610b268661090a565b5f5b82811015610b4d57848901518255600182019150602085019450602081019050610b28565b86831015610b6a5784890151610b66601f891682610a79565b8355505b6001600288020188555050505b505050505050565b5f6040820190508181035f830152610b9781856106f2565b9050610ba660208301846106a1565b9392505050565b7f4f6e6c7920746865206f776e65722063616e207472616e7366657220746865205f8201527f70726f70657274792e0000000000000000000000000000000000000000000000602082015250565b5f610c076029836106ba565b9150610c1282610bad565b604082019050919050565b5f6020820190508181035f830152610c3481610bfb565b905091905056fea2646970667358221220cb5322cd0d80aef81a037ab591eb981e4aa792978c24625dd9ff1a678a66be9564736f6c63430008150033",
  "immutableReferences": {},
  "source": "// SPDX-License-Identifier: MIT\r\npragma solidity ^0.8.21;\r\n\r\ncontract LandRegistry {\r\n    struct Property {\r\n        address owner;\r\n        string propertyId;\r\n    }\r\n\r\n    mapping(string => Property) public properties;\r\n\r\n    event PropertyRegistered(string propertyId, address owner);\r\n    event PropertyTransferred(string propertyId, address newOwner);\r\n\r\n    function registerProperty(string memory propertyId) public {\r\n        require(properties[propertyId].owner == address(0), \"Property already registered.\");\r\n        properties[propertyId] = Property(msg.sender, propertyId);\r\n        emit PropertyRegistered(propertyId, msg.sender);\r\n    }\r\n\r\n    function transferProperty(string memory propertyId, address newOwner) public {\r\n        require(properties[propertyId].owner == msg.sender, \"Only the owner can transfer the property.\");\r\n        properties[propertyId].owner = newOwner;\r\n        emit PropertyTransferred(propertyId, newOwner);\r\n    }\r\n\r\n    function getPropertyOwner(string memory propertyId) public view returns (address) {\r\n        return properties[propertyId].owner;\r\n    }\r\n}\r\n",
  "sourcePath": "C:\\my-ethereum-project\\contracts\\land_registry_contract.sol",
  "compiler": {
    "name": "solc",
    "version": "0.8.21+commit.d9974bed.Emscripten.clang"
  },
  "schemaVersion": "3.4.16",
  "updatedAt": "2024-12-24T13:28:21.848Z",
  "devdoc": {
    "kind": "dev",
    "methods": {},
    "version": 1
  },
  "userdoc": {
    "kind": "user",
    "methods": {},
    "version": 1
  }
}