{
  "contractName": "SupplyChain",
  "abi": [
    {
      "anonymous": false,
      "inputs": [
        {
          "indexed": false,
          "internalType": "string",
          "name": "goodsId",
          "type": "string"
        },
        {
          "indexed": false,
          "internalType": "string",
          "name": "location",
          "type": "string"
        }
      ],
      "name": "GoodsAdded",
      "type": "event"
    },
    {
      "anonymous": false,
      "inputs": [
        {
          "indexed": false,
          "internalType": "string",
          "name": "goodsId",
          "type": "string"
        },
        {
          "indexed": false,
          "internalType": "string",
          "name": "newLocation",
          "type": "string"
        }
      ],
      "name": "LocationUpdated",
      "type": "event"
    },
    {
      "inputs": [
        {
          "internalType": "string",
          "name": "",
          "type": "string"
        }
      ],
      "name": "goodsTracking",
      "outputs": [
        {
          "internalType": "string",
          "name": "goodsId",
          "type": "string"
        },
        {
          "internalType": "string",
          "name": "location",
          "type": "string"
        }
      ],
      "stateMutability": "view",
      "type": "function"
    },
    {
      "inputs": [
        {
          "internalType": "string",
          "name": "goodsId",
          "type": "string"
        },
        {
          "internalType": "string",
          "name": "location",
          "type": "string"
        }
      ],
      "name": "addGoods",
      "outputs": [],
      "stateMutability": "nonpayable",
      "type": "function"
    },
    {
      "inputs": [
        {
          "internalType": "string",
          "name": "goodsId",
          "type": "string"
        },
        {
          "internalType": "string",
          "name": "newLocation",
          "type": "string"
        }
      ],
      "name": "updateLocation",
      "outputs": [],
      "stateMutability": "nonpayable",
      "type": "function"
    },
    {
      "inputs": [
        {
          "internalType": "string",
          "name": "goodsId",
          "type": "string"
        }
      ],
      "name": "getGoodsLocation",
      "outputs": [
        {
          "internalType": "string",
          "name": "",
          "type": "string"
        }
      ],
      "stateMutability": "view",
      "type": "function"
    }
  ],
  "bytecode": "0x608060405234801561000f575f80fd5b50610bbc8061001d5f395ff3fe608060405234801561000f575f80fd5b506004361061004a575f3560e01c8063308a97921461004e578063663985db1461007e578063f43ce2cd1461009a578063f6ddac74146100cb575b5f80fd5b61006860048036038101906100639190610608565b6100e7565b60405161007591906106c9565b60405180910390f35b610098600480360381019061009391906106e9565b610197565b005b6100b460048036038101906100af9190610608565b6102a0565b6040516100c292919061075f565b60405180910390f35b6100e560048036038101906100e091906106e9565b6103e3565b005b60605f826040516100f891906107ce565b9081526020016040518091039020600101805461011490610811565b80601f016020809104026020016040519081016040528092919081815260200182805461014090610811565b801561018b5780601f106101625761010080835404028352916020019161018b565b820191905f5260205f20905b81548152906001019060200180831161016e57829003601f168201915b50505050509050919050565b5f80836040516101a791906107ce565b90815260200160405180910390205f0180546101c290610811565b905014610204576040517f08c379a00000000000000000000000000000000000000000000000000000000081526004016101fb9061088b565b60405180910390fd5b6040518060400160405280838152602001828152505f8360405161022891906107ce565b90815260200160405180910390205f820151815f0190816102499190610a4f565b50602082015181600101908161025f9190610a4f565b509050507fe981d6ba476d496626e0056be4e88fef53a448ec678aa9aed19832a36791cbe8828260405161029492919061075f565b60405180910390a15050565b5f818051602081018201805184825260208301602085012081835280955050505050505f91509050805f0180546102d690610811565b80601f016020809104026020016040519081016040528092919081815260200182805461030290610811565b801561034d5780601f106103245761010080835404028352916020019161034d565b820191905f5260205f20905b81548152906001019060200180831161033057829003601f168201915b50505050509080600101805461036290610811565b80601f016020809104026020016040519081016040528092919081815260200182805461038e90610811565b80156103d95780601f106103b0576101008083540402835291602001916103d9565b820191905f5260205f20905b8154815290600101906020018083116103bc57829003601f168201915b5050505050905082565b5f80836040516103f391906107ce565b90815260200160405180910390205f01805461040e90610811565b905003610450576040517f08c379a000000000000000000000000000000000000000000000000000000000815260040161044790610b68565b60405180910390fd5b805f8360405161046091906107ce565b9081526020016040518091039020600101908161047d9190610a4f565b507f5ce8b14d0bc114fb7e0389871755b1784cc4a79f9ab4f72255535491d7fb5e9c82826040516104af92919061075f565b60405180910390a15050565b5f604051905090565b5f80fd5b5f80fd5b5f80fd5b5f80fd5b5f601f19601f8301169050919050565b7f4e487b71000000000000000000000000000000000000000000000000000000005f52604160045260245ffd5b61051a826104d4565b810181811067ffffffffffffffff82111715610539576105386104e4565b5b80604052505050565b5f61054b6104bb565b90506105578282610511565b919050565b5f67ffffffffffffffff821115610576576105756104e4565b5b61057f826104d4565b9050602081019050919050565b828183375f83830152505050565b5f6105ac6105a78461055c565b610542565b9050828152602081018484840111156105c8576105c76104d0565b5b6105d384828561058c565b509392505050565b5f82601f8301126105ef576105ee6104cc565b5b81356105ff84826020860161059a565b91505092915050565b5f6020828403121561061d5761061c6104c4565b5b5f82013567ffffffffffffffff81111561063a576106396104c8565b5b610646848285016105db565b91505092915050565b5f81519050919050565b5f82825260208201905092915050565b5f5b8381101561068657808201518184015260208101905061066b565b5f8484015250505050565b5f61069b8261064f565b6106a58185610659565b93506106b5818560208601610669565b6106be816104d4565b840191505092915050565b5f6020820190508181035f8301526106e18184610691565b905092915050565b5f80604083850312156106ff576106fe6104c4565b5b5f83013567ffffffffffffffff81111561071c5761071b6104c8565b5b610728858286016105db565b925050602083013567ffffffffffffffff811115610749576107486104c8565b5b610755858286016105db565b9150509250929050565b5f6040820190508181035f8301526107778185610691565b9050818103602083015261078b8184610691565b90509392505050565b5f81905092915050565b5f6107a88261064f565b6107b28185610794565b93506107c2818560208601610669565b80840191505092915050565b5f6107d9828461079e565b915081905092915050565b7f4e487b71000000000000000000000000000000000000000000000000000000005f52602260045260245ffd5b5f600282049050600182168061082857607f821691505b60208210810361083b5761083a6107e4565b5b50919050565b7f476f6f647320616c72656164792061646465642e0000000000000000000000005f82015250565b5f610875601483610659565b915061088082610841565b602082019050919050565b5f6020820190508181035f8301526108a281610869565b9050919050565b5f819050815f5260205f209050919050565b5f6020601f8301049050919050565b5f82821b905092915050565b5f600883026109057fffffffffffffffffffffffffffffffffffffffffffffffffffffffffffffffff826108ca565b61090f86836108ca565b95508019841693508086168417925050509392505050565b5f819050919050565b5f819050919050565b5f61095361094e61094984610927565b610930565b610927565b9050919050565b5f819050919050565b61096c83610939565b6109806109788261095a565b8484546108d6565b825550505050565b5f90565b610994610988565b61099f818484610963565b505050565b5b818110156109c2576109b75f8261098c565b6001810190506109a5565b5050565b601f821115610a07576109d8816108a9565b6109e1846108bb565b810160208510156109f0578190505b610a046109fc856108bb565b8301826109a4565b50505b505050565b5f82821c905092915050565b5f610a275f1984600802610a0c565b1980831691505092915050565b5f610a3f8383610a18565b9150826002028217905092915050565b610a588261064f565b67ffffffffffffffff811115610a7157610a706104e4565b5b610a7b8254610811565b610a868282856109c6565b5f60209050601f831160018114610ab7575f8415610aa5578287015190505b610aaf8582610a34565b865550610b16565b601f198416610ac5866108a9565b5f5b82811015610aec57848901518255600182019150602085019450602081019050610ac7565b86831015610b095784890151610b05601f891682610a18565b8355505b6001600288020188555050505b505050505050565b7f476f6f6473206e6f7420666f756e642e000000000000000000000000000000005f82015250565b5f610b52601083610659565b9150610b5d82610b1e565b602082019050919050565b5f6020820190508181035f830152610b7f81610b46565b905091905056fea2646970667358221220382f3c6ba65c0b8054190473ce87b601434ee4248a21b613c8becb7fb89428a164736f6c63430008150033",
  "immutableReferences": {},
  "source": "// SPDX-License-Identifier: MIT\r\npragma solidity ^0.8.21;\r\n\r\ncontract SupplyChain {\r\n    struct Goods {\r\n        string goodsId;\r\n        string location;\r\n    }\r\n\r\n    mapping(string => Goods) public goodsTracking;\r\n\r\n    event GoodsAdded(string goodsId, string location);\r\n    event LocationUpdated(string goodsId, string newLocation);\r\n\r\n    function addGoods(string memory goodsId, string memory location) public {\r\n        require(bytes(goodsTracking[goodsId].goodsId).length == 0, \"Goods already added.\");\r\n        goodsTracking[goodsId] = Goods(goodsId, location);\r\n        emit GoodsAdded(goodsId, location);\r\n    }\r\n\r\n    function updateLocation(string memory goodsId, string memory newLocation) public {\r\n        require(bytes(goodsTracking[goodsId].goodsId).length != 0, \"Goods not found.\");\r\n        goodsTracking[goodsId].location = newLocation;\r\n        emit LocationUpdated(goodsId, newLocation);\r\n    }\r\n\r\n    function getGoodsLocation(string memory goodsId) public view returns (string memory) {\r\n        return goodsTracking[goodsId].location;\r\n    }\r\n}\r\n",
  "sourcePath": "C:\\my-ethereum-project\\contracts\\supply_chain_contract.sol",
  "compiler": {
    "name": "solc",
    "version": "0.8.21+commit.d9974bed.Emscripten.clang"
  },
  "schemaVersion": "3.4.16",
  "updatedAt": "2024-12-24T13:28:21.855Z",
  "devdoc": {
    "kind": "dev",
    "methods": {},
    "version": 1
  },
  "userdoc": {
    "kind": "user",
    "methods": {},
    "version": 1
  }
}